S01700004D616E65757665722053797374656D2E7372656325
S11300000C9463000C9480000C9480000C94800089
S11300100C9480000C9480000C9480000C9480005C
S11300200C9480000C9480000C9480000C942402A6
S11300300C9480000C9480000C9480000C9480003C
S11300400C9480000C9480000C9480000C9480002C
S11300500C9480000C9480000C9480000C9480001C
S11300600C9480000C9480000C9480000C9480000C
S11300700C9480000C9480000C9480000C948000FC
S11300800C9480000C9480000C9480000C948000EC
S11300900C9480000C9480000C9480000C948000DC
S11300A00C9480000C9480000C9480000C948000CC
S11300B00C94800050013E0140014201440146017C
S11300C048014A014C0111241FBECFEFD8E0DEBF26
S11300D0CDBF11E0A0E0B1E0E0E4F9E002C005909A
S11300E00D92A230B107D9F721E0A2E0B1E001C03E
S11300F01D92A930B207E1F70E942B010C949E04D3
S11301000C94000080E480937C0087E880937A005C
S1130110089588E09DE39093890080938800E1E846
S1130120F0E0808188608083AFE6B0E08C918260EB
S11301308C938081856080830895259A8AB18C632D
S11301408AB9279887B1807F87B98BB18C608BB9C6
S11301500895ECE7F0E09081987F8770892B808385
S1130160EAE7F0E0808180648083808186FDFDCFB2
S113017080917800909179000895CF93DF9382E085
S11301800E94A900EC0183E00E94A9009E01281BA3
S1130190390BC9012333310514F05D9A05C08E3C37
S11301A03FEF93070CF45D98C29685369105D8F01D
S11301B082E00E94A900EC0183E00E94A9005C9AFD
S11301C0EFE3FCE93197F1F700C000005C98EFE33E
S11301D0FCE93197F1F700C00000C81BD90BE29687
S11301E0C536D10528F7DF91CF910895CF93DF93DA
S11301F0DC019C012A5F3F4FE0ECF0E0C6ECD0E06C
S1130200908195FFFDCF8D918883A217B307C1F725
S1130210E0ECF0E0808185FFFDCF80E28093C600B2
S1130220E2E0F1E080838183828383838483858316
S1130230DF91CF9108951092C50087E68093C400A2
S1130240E1ECF0E0808188618083E2ECF0E0808181
S11302508660808308950E941B010E9482000E9490
S113026089000E949D007894FFCF01978930910501
S1130270A8F4865A9F4FFC010C94980482E30895D5
S113028083E3089584E3089585E3089586E3089558
S113029087E3089588E3089589E3089580E3089542
S11302A081E308954F925F926F927F928F929F9213
S11302B0AF92BF92CF92DF92EF92FF920F931F9370
S11302C0CF93DF934B01BC01990F880B990B0E94CC
S11302D076036B017C0120E030E0A9010E94C70293
S11302E0882324F4F7FAF094F7F8F09420E030E04F
S11302F040E85FE3C701B6010E9426048823F4F1B5
S1130300C0E0D0E020E030E040E251E4C701B601B3
S11303100E94CC026B017C01219620E030E040E891
S11303205FE30E94260488236CF72BC0A016B10655
S113033029F120E030E040E251E4C701B6010E9417
S11303402B046B017C010E943E032B013C01072E10
S1130350000C880B990B0E9476039B01AC01C7012A
S1130360B6010E945A026B017C01C2010E94350150
S1130370F80181938F01CE17DF07C1F6F4011682CD
S11303800BC01C161D06D4F78401C80DD91D5401D9
S1130390F6E0AF0EB11CCDCFDF91CF911F910F913D
S11303A0FF90EF90DF90CF90BF90AF909F908F9091
S11303B07F906F905F904F9008950F931F93CF930A
S11303C0DF9380E00E94A900EC0162E071E00E94EA
S11303D0520182E091E00E94F60081E00E94A900AF
S11303E08C0162E071E00E94520182E091E00E947F
S11303F0F600CE01801B910B8F3C2FEF920714F077
S11304005B9804C0823391050CF45A98C2968536E1
S1130410910568F080E00E94A900EC0181E00E944F
S1130420A900C81BD90BE296C536D10598F78BB144
S11304308C608BB9DF91CF911F910F9108950E9429
S1130440BD000E94DD0108951F920F920FB60F9216
S113045011242F933F934F935F936F937F938F93C5
S11304609F93AF93BF93EF93FF938091000190917B
S11304700101892B71F010920101109200011D9A63
S11304800E941F021D9A81E090E0909301018093E5
S11304900001FF91EF91BF91AF919F918F917F9157
S11304A06F915F914F913F912F910F900FBE0F90DD
S11304B01F9018955058BB27AA270E9472020C94CB
S11304C0EC030E94DE0338F00E94E50320F039F4C7
S11304D09F3F19F426F40C94DB030EF4E095E7FB3C
S11304E00C94D503E92F0E94FD0358F3BA17620751
S11304F073078407950720F079F4A6F50C941F047C
S11305000EF4E0950B2EBA2FA02D0B01B90190012A
S11305100C01CA01A0011124FF27591B99F0593F6E
S113052050F4503E68F11A16F040A22F232F342FB6
S11305304427585FF3CF469537952795A795F04004
S11305405395C9F77EF41F16BA0B620B730B840B19
S1130550BAF09150A1F0FF0FBB1F661F771F881FD1
S1130560C2F70EC0BA0F621F731F841F48F4879529
S113057077956795B795F7959E3F08F0B0CF93951B
S1130580880F08F09927EE0F9795879508950E9494
S1130590B10308F481E008950E94E0020C94EC0396
S11305A00E94E50358F00E94DE0340F029F45F3F07
S11305B029F00C94D50351110C9420040C94DB0302
S11305C00E94FD0368F39923B1F3552391F3951B1E
S11305D0550BBB27AA2762177307840738F09F5F60
S11305E05F4F220F331F441FAA1FA9F335D00E2ECD
S11305F03AF0E0E832D091505040E695001CCAF73A
S11306002BD0FE2F29D0660F771F881FBB1F2617FC
S113061037074807AB07B0E809F0BB0B802DBF01D3
S1130620FF2793585F4F3AF09E3F510578F00C94A2
S1130630D5030C9420045F3FE4F3983ED4F38695ED
S113064077956795B795F7959F5FC9F7880F911DC3
S11306509695879597F90895E1E0660F771F881FAF
S1130660BB1F621773078407BA0720F0621B730B62
S1130670840BBA0BEE1F88F7E09508950E9445039A
S11306806894B1110C94200408950E94050488F024
S11306909F5798F0B92F9927B751B0F0E1F0660F42
S11306A0771F881F991F1AF0BA95C9F714C0B13083
S11306B091F00E941F04B1E008950C941F04672F69
S11306C0782F8827B85F39F0B93FCCF386957795B2
S11306D06795B395D9F73EF490958095709561959B
S11306E07F4F8F4F9F4F0895E89409C097FB3EF4C6
S11306F090958095709561957F4F8F4F9F4F99236B
S1130700A9F0F92F96E9BB279395F69587957795E8
S11307106795B795F111F8CFFAF4BB0F11F460FFA8
S11307201BC06F5F7F4F8F4F9F4F16C0882311F000
S113073096E911C0772321F09EE8872F762F05C014
S1130740662371F096E8862F70E060E02AF09A95AF
S1130750660F771F881FDAF7880F9695879597F9A4
S11307600895990F0008550FAA0BE0E8FEEF16163E
S11307701706E807F907C0F012161306E407F50791
S113078098F0621B730B840B950B39F40A2661F005
S1130790232B242B252B21F408950A2609F4A140A8
S11307A0A6958FEF811D811D089597F99F6780E8B5
S11307B070E060E008959FEF80EC089500240A94AF
S11307C01616170618060906089500240A94121628
S11307D01306140605060895092E0394000C11F45B
S11307E0882352F0BB0F40F4BF2B11F460FF04C008
S11307F06F5F7F4F8F4F9F4F089557FD9058440F61
S1130800551F59F05F3F71F04795880F97FB991F6B
S113081061F09F3F79F08795089512161306140628
S1130820551FF2CF4695F1DF08C0161617061806B5
S1130830991FF1CF86957105610508940895E89490
S1130840BB2766277727CB0197F908950E94B10348
S113085008F48FEF08950E943E040C94EC030E9468
S1130860DE0338F00E94E50320F0952311F00C9488
S1130870D5030C94DB0311240C9420040E94FD0383
S113088070F3959FC1F3950F50E0551F629FF001DF
S1130890729FBB27F00DB11D639FAA27F00DB11DF8
S11308A0AA1F649F6627B00DA11D661F829F222781
S11308B0B00DA11D621F739FB00DA11D621F839F08
S11308C0A00D611D221F749F3327A00D611D231FDE
S11308D0849F600D211D822F762F6A2F11249F572C
S11308E050409AF0F1F088234AF0EE0FFF1FBB1F2F
S11308F0661F771F881F91505040A9F79E3F5105EE
S113090080F00C94D5030C9420045F3FE4F3983EEC
S1130910D4F3869577956795B795F795E7959F5F97
S1130920C1F7FE2B880F911D9695879597F9089529
S1130930EE0FFF1F0590F491E02D0994F894FFCF7A
S10509400100B0
S9030000FC
